:020000040000FA
:10000000000002289230FE000230FF008030000025
:100010000000F4210000000083160000A1007F080A
:10002000A0009430A2000230A30083160000200834
:10003000A4002108A500FF30A007031CA103250888
:10004000240403199A2804302207A400A501A50D51
:100050002308A5072408FE002508FF0080300000C3
:100060000000F4210000000083160000A7007F08B4
:10007000A6002208FE002308FF00803000000000D8
:10008000F4210000000083160000A900A5007F08ED
:10009000A400A80002302207A400A501A50D230892
:1000A000A5072408FE002508FF008030000000009E
:1000B000F4210000000083160000A500AB007F08BB
:1000C000AA00A400831600002608AA002708AB0097
:1000D000FF30A607031CA7032B082A040319932843
:1000E0002808FE002908FF00803000000000E12100
:1000F0000000000083160000AA00240883120313E6
:100100008400831383160000251883172A0883129E
:100110000313800083160000A80A0319A90AA40A81
:100120000319A50A6228063083160000A2070318E7
:10013000A30A1528000000002229080083160000E9
:10014000B7007F0883160000BA0083160000B600CF
:100150007E08B9007D0883160000BC0083160000ED
:10016000B800370883160000BB008316000039086A
:1001700083160000BD00831600003A0883160000B5
:10018000B600831600003C0883160000B700FF008D
:100190003608000000004022000000008316000026
:1001A000B7007F08B60083160000BE00831600006B
:1001B000370883160000BF0083160000B6008316C0
:1001C00000003A0883160000B700831600003D08BF
:1001D00083160000B800FF0037080000000040222E
:1001E000000000007F0883160000B700831600009F
:1001F0003B0883160000B800831600003C088316F5
:100200000000B900FF003808000000004022000094
:1002100000007F0883160000B800B7073708B6074C
:10022000360883160000BF003E0883160000B600A3
:10023000831600003F0883160000B7003608FF0051
:100240003708080083169F01083085008312850156
:100250008316B4018312851D2F298316B40A8316D1
:100260003408013A031D88296B228316B5007F08E4
:10027000B400013A031D43293508003A031D432900
:1002800083120514882983163408023A031D4F2966
:100290003508003A031D4F298312851488298316D7
:1002A0003408033A031D5C293508003A031D5C2914
:1002B000831205148514882983163408043A031D13
:1002C0006A293508003A031D6A298312051485142A
:1002D0000515882983163408053A031D7929350840
:1002E000003A031D79298312051485140515051696
:1002F000882983163408063A031D88293508003AF0
:10030000031D882983120514851405150516851605
:10031000D030FF000730152283120510851005111B
:10032000051285122829080083120000A1007F0809
:10033000A0007E08A3007D08A200A401A5018312ED
:10034000000023088039031D0130A6002608031D84
:10035000C0290310A20DA30D23082102031DB229F9
:10036000220820020318BA29031083120000A30CEC
:10037000A20CC02983120000A50A2508A4009F2909
:100380008312000023082102031DC829220820022D
:10039000031CD229831200002208A0022308031C98
:1003A000230FA102031083120000A30CA20C240847
:1003B000A500A4032508031DC0292008FF0021086B
:1003C0000800003A0319E829803A0319EF2900349C
:1003D0007E08840083137F188317000808007F08B5
:1003E0008A007E0882000800003A0319FC29803A3E
:1003F0000319062AFF0100347E08840083137F1846
:1004000083170008FF00840A0008080000000000AD
:10041000EF21FD00FE0FFF03FF0A00000000EF21A7
:10042000FC007D08FF007C0808008316AD007F08F3
:10043000AC00AE01AF0183162D082F02031D222A46
:100440002C082E0203183F2AE8308316B000033030
:10045000B100FF3083163007B200FF30B30031081F
:100460000318310FB3073208B0003308B100330866
:100470003204031D292AAE0A0319AF0A1B2A0800F9
:1004800083120000A7007F08A800A901AA01AB0100
:100490000830831200002B020318652A0310A90DEF
:1004A000AA0DA71F5C2A0030AD002808AC00A907E0
:1004B0002D0803182D0FAA07831200002708AC008F
:1004C00003102C0DA700AB0A482A8312000029084C
:1004D000FF002A0808008312AE0A0319AF0A2E088B
:1004E000FD002F08FE00CF30FF007F309E208316D6
:1004F000AD007F08AC000330AC070318AD0A06302E
:10050000FD000030FE002C08FF002D08942183160A
:10051000AD007F08AC00AC0A0319AD0A2C08FF003F
:100520002D08080002340034A03402342E34003484
:1005300002340034A2340234303400340134003444
:0605400000340034003419
:00000001FF
